:03000000020003F8
:0C000300787FE4F6D8FD75810802004A01
:0300ED0001080007
:0400D5007F147E0016
:1000D900EF4E600F7D0B7CBEDCFEDDFCEF1F70F088
:0300E9001E80ED89
:0100EC0022F1
:10008F0075A0FE20B1171200D530B1FD1200D505B5
:10009F0008E508C39408401CE4F508801720B01445
:1000AF001200D530B0FD1200D5E5087005750807B0
:1000BF0080021508AF087401A807088002C333D85F
:0600CF00FCF4F5A080BD69
:10000F0002008FE493A3F8E493A34003F68001F278
:10001F0008DFF48029E493A3F85407240CC8C333F2
:10002F00C4540F4420C8834004F456800146F6DFC1
:10003F00E4800B01020408102040809000EDE47E64
:10004F00019360BCA3FF543F30E509541FFEE493B6
:10005F00A360010ECF54C025E060A840B8E493A37D
:10006F00FAE493A3F8E493A3C8C582C8CAC583CAA8
:10007F00F0A3C8C582C8CAC583CADFE9DEE780BE60
:0100F000000F
:00000001FF
