:030000000200BA41
:0C00BA00787FE4F6D8FD75812602010174
:030339000125009B
:050334001202A980FE89
:0300230002014691
:10014600C0E0C0F0C083C082C0D075D000C000C07F
:1001560001C002C003C004C005C006C00730980A2B
:100166008599A0C298AF99120325D007D006D0056D
:10017600D004D003D002D001D000D0D0D082D0831A
:05018600D0F0D0E032D2
:1002DA00EF4E600F7D0B7CBEDCFEDDFCEF1F70F085
:0302EA001E80ED86
:0102ED0022EE
:06030200C2A58F80D2A706
:080308007F027EEFDEFEDFFC48
:0103100022CA
:0A031100C2A6120302C2A7020308ED
:10000300CFCDCFCECCCE1200657C007D0A12006529
:04001300ED2430FFA9
:0A001700D2A6120302C2A7020308DA
:1002C400AE07BE0104ED148006BE0209ED243F44CE
:0602D40080FF120311225D
:1002EE007F381203117F0C1203117F061203117F48
:0402FE0001020311E5
:0A031B00AC031202C4AF0402001785
:060269008B228A23892488
:10026F001202C4E4FDAB22AA23A9248D8275830058
:0C027F00120026FF60061200170D80E937
:01028B002250
:0C0236007F0AEA24FFFDE434FFFC7E0098
:080242008E1E8F1F8C208D2100
:10024A007F017E00E4FBEBC39521E5206480F8740E
:0E025A008098500AAC1EAD1F1200530B80E8B6
:010268002273
:04028C008A118B1236
:100290001202C4AA13EAD39400400D120236AC1124
:0802A000AD121200031A80EDFB
:0102A8002233
:10018B001202C4C3EA64809480400B7F2B120017C9
:10019B008A0D8B0E800E7F2D120017C3E49BF50E7C
:1001AB00E49AF50DAA0CEAD39400400D120236AC7A
:0901BB000DAD0E1200031A80EDD7
:0101C4002218
:0401C5008A168B17F4
:1001C9001202C4AA18EAD3940040297F10120238F7
:1001D900AC16AD17CFCDCFCECCCE120065EF540FF4
:1001E900FEC3940AEE5004243080022437FF120023
:0401F900171A80D180
:0101FD0022DF
:0401FE008A1B8B1CB1
:100202001202C4AA1DEAD394004028EA24FFFDE4A6
:1002120034FFFC7F027E00120242AC1BAD1CCFCD2C
:10022200CFCECCCE120065EF54012430FF1200175E
:030232001A80D25D
:0102350022A6
:1002A90043878075985053890F438920758BF4755E
:0B02B9008DF4C2ABD28ED2AFD2AC22CB
:080325008F993099FDC2992265
:03033D008F2622E6
:07032D0053890F43892022D0
:1000C600020334E493A3F8E493A34003F68001F219
:1000D60008DFF48029E493A3F85407240CC8C3333B
:1000E600C4540F4420C8834004F456800146F6DF0A
:1000F600E4800B0102040810204080900339E47E5E
:10010600019360BCA3FF543F30E509541FFEE493FE
:10011600A360010ECF54C025E060A840B8E493A3C5
:10012600FAE493A3F8E493A3C8C582C8CAC583CAF0
:10013600F0A3C8C582C8CAC583CADFE9DEE780BEA8
:01033C0000C0
:10002600BB010CE58229F582E5833AF583E022508F
:1000360006E92582F8E622BBFE06E92582F8E222D9
:0D004600E58229F582E5833AF583E49322F3
:10005300EF8DF0A4A8F0CF8CF0A428CE8DF0A42EC1
:02006300FE227B
:10006500BC000BBE0029EF8DF084FFADF022E4CC7F
:10007500F875F008EF2FFFEE33FEEC33FCEE9DEC48
:10008500984005FCEE9DFE0FD5F0E9E4CEFD22ED8E
:10009500F8F5F0EE8420D21CFEADF075F008EF2FD8
:1000A500FFED33FD4007985006D5F0F222C398FDC9
:0500B5000FD5F0EA2266
:00000001FF
