:0300000002012CCE
:0C012C00787FE4F6D8FD75812C02017389
:0C03410002130000021700150215001541
:1000030075110075120212030A0514E51470020536
:1000130013C3943CE5139400400DE4F513F5140564
:1000230018E51870020517C3E518943CE51794000A
:10003300400DE4F517F5180516E51670020515C30E
:10004300E5169418E51594004005E4F515F5167FBB
:10005300F47E0112031E750C02AB16AA157D017FF7
:10006300011202D77B3A7D037F01120364750C02F0
:10007300AB18AA177D047F011202D77B3A7D067F56
:1000830001120364750C02AB14AA137D077F0112DE
:0500930002D702000C81
:06033200C2A58F80D2A7D6
:080338007F027EEFDEFEDFFC18
:01034000229A
:0A035A00C2A6120332C2A702033844
:1002B900CFCDCFCECCCE1200D77C007D0A1200D78D
:0402C900ED2430FFF1
:0A02CD00D2A6120332C2A7020338C2
:1002F400AE07BE0104ED148006BE0209ED243F449E
:0603040080FF12035A22E3
:10030A007F3812035A7F0C12035A7F0612035A7F50
:04031A000102035A7F
:0A036400AC031202F4AF040202CD54
:060296008B2A8A2B892C43
:10029C001202F4E4FDAB2AAA2BA92C8D82758300E3
:0C02AC00120098FF60061202CD0D80E9E0
:0102B8002223
:0C0263007F0AEA24FFFDE434FFFC7E006B
:08026F008E0D8F0E8C0F8D1017
:100277007F017E00E4FBEBC39510E50F6480F87403
:0E0287008098500AAC0DAD0E1200C50B80E839
:010295002246
:0402D7008A0A8B0BF9
:1002DB001202F4AA0CEAD39400400D120263AC0A8A
:0802EB00AD0B1202B91A80EDFF
:0102F30022E8
:1001B8001202F4C3EA64809480400B7F2B1202CDB4
:1001C8008A1E8B1F800E7F2D1202CDC3E49BF51F64
:1001D800E49AF51EAA1DEAD39400400D120263ACFE
:0901E8001EAD1F1202B91A80EDD0
:0101F10022EB
:0401F2008A228B23AF
:1001F6001202F4AA24EAD3940040297F1012026561
:10020600AC22AD23CFCDCFCECCCE1200D7EF540F3C
:10021600FEC3940AEE5004243080022437FF1202F3
:04022600CD1A80D19C
:01022A0022B1
:04022B008A278B286B
:10022F001202F4AA29EAD394004028EA24FFFDE43D
:10023F0034FFFC7F027E0012026FAC27AD28CFCDBA
:10024F00CFCECCCE1200D7EF54012430FF1202CD07
:03025F001A80D230
:010262002279
:0B034E00EF6008007E19DEFE1F80F546
:010359002281
:10031E00EF4E600F7D0B7CBEDCFEDDFCEF1F70F040
:03032E001E80ED41
:0103310022A9
:10013800020003E493A3F8E493A34003F68001F2DA
:1001480008DFF48029E493A3F85407240CC8C333C8
:10015800C4540F4420C8834004F456800146F6DF97
:10016800E4800B0102040810204080900341E47EE3
:10017800019360BCA3FF543F30E509541FFEE4938C
:10018800A360010ECF54C025E060A840B8E493A353
:10019800FAE493A3F8E493A3C8C582C8CAC583CA7E
:1001A800F0A3C8C582C8CAC583CADFE9DEE780BE36
:01034D0000AF
:10009800BB010CE58229F582E5833AF583E022501D
:1000A80006E92582F8E622BBFE06E92582F8E22267
:0D00B800E58229F582E5833AF583E4932281
:1000C500EF8DF0A4A8F0CF8CF0A428CE8DF0A42E4F
:0200D500FE2209
:1000D700BC000BBE0029EF8DF084FFADF022E4CC0D
:1000E700F875F008EF2FFFEE33FEEC33FCEE9DECD6
:1000F700984005FCEE9DFE0FD5F0E9E4CEFD22ED1C
:10010700F8F5F0EE8420D21CFEADF075F008EF2F65
:10011700FFED33FD4007985006D5F0F222C398FD56
:050127000FD5F0EA22F3
:00000001FF
