:0300000002009764
:0C009700787FE4F6D8FD7581260200DEBB
:0302F900012600DB
:10025F0043878075985053890F438920758BF475A8
:07026F008DF4C2ABD28E2218
:0802EA008F993099FDC29922A1
:0302FD008F252228
:1002B40012025FAF261202EA05267FF47E011202C3
:0302C4008C80F03B
:10028C00EF4E600F7D0B7CBEDCFEDDFCEF1F70F0D3
:03029C001E80EDD4
:01029F00223C
:0602C700C2A58F80D2A742
:0802CD007F027EEFDEFEDFFC84
:0102D5002206
:0A02D600C2A61202C7C2A70202CDA1
:10022400CFCDCFCECCCE1200427C007D0A1200424C
:04023400ED2430FF86
:0A023800D2A61202C7C2A70202CD2F
:10027600AE07BE0104ED148006BE0209ED243F441C
:0602860080FF1202D622E7
:1002A0007F381202D67F0C1202D67F061202D67F4A
:0402B000010202D66F
:0A02E000AC03120276AF04020238EC
:060201008B228A238924F0
:10020700120276E4FDAB22AA23A9248D827583000E
:0C021700120003FF60061202380D80E99F
:0102230022B8
:0C01CE007F0AEA24FFFDE434FFFC7E0001
:0801DA008E1E8F1F8C208D2169
:1001E2007F017E00E4FBEBC39521E5206480F87477
:0E01F2008098500AAC1EAD1F1200300B80E842
:0102000022DB
:040242008A118B1280
:10024600120276AA13EAD39400400D1201CEAC1125
:08025600AD121202241A80ED22
:01025E00227D
:10012300120276C3EA64809480400B7F2B1202385C
:100133008A0D8B0E800E7F2D120238C3E49BF50EC1
:10014300E49AF50DAA0CEAD39400400D1201CEAC4B
:090153000DAD0E1202241A80ED1C
:01015C002280
:04015D008A168B175C
:10016100120276AA18EAD3940040297F101201D016
:10017100AC16AD17CFCDCFCECCCE120042EF540F7F
:10018100FEC3940AEE5004243080022437FF120289
:04019100381A80D1C7
:010195002247
:040196008A1B8B1C19
:10019A00120276AA1DEAD394004028EA24FFFDE45D
:1001AA0034FFFC7F027E001201DAAC1BAD1CCFCDFE
:1001BA00CFCECCCE120042EF54012430FF120238C7
:0301CA001A80D2C6
:0101CD00220F
:0702F20053890F438920220C
:1000A3000202B4E493A3F8E493A34003F68001F2BD
:1000B30008DFF48029E493A3F85407240CC8C3335E
:1000C300C4540F4420C8834004F456800146F6DF2D
:1000D300E4800B01020408102040809002F9E47EC2
:1000E300019360BCA3FF543F30E509541FFEE49322
:1000F300A360010ECF54C025E060A840B8E493A3E9
:10010300FAE493A3F8E493A3C8C582C8CAC583CA13
:10011300F0A3C8C582C8CAC583CADFE9DEE780BECB
:0102FC000001
:10000300BB010CE58229F582E5833AF583E02250B2
:1000130006E92582F8E622BBFE06E92582F8E222FC
:0D002300E58229F582E5833AF583E4932216
:10003000EF8DF0A4A8F0CF8CF0A428CE8DF0A42EE4
:02004000FE229E
:10004200BC000BBE0029EF8DF084FFADF022E4CCA2
:10005200F875F008EF2FFFEE33FEEC33FCEE9DEC6B
:10006200984005FCEE9DFE0FD5F0E9E4CEFD22EDB1
:10007200F8F5F0EE8420D21CFEADF075F008EF2FFB
:10008200FFED33FD4007985006D5F0F222C398FDEC
:050092000FD5F0EA2289
:00000001FF
