:030000000200E516
:0C00E500787FE4F6D8FD75810D02000361
:100052000000000000000000FF101010FF001E2929
:100062002929190000FF010200FF0102007E81819F
:10007200817E0000F9000000000000000000000086
:100003001200F1E4F508F509AF09E50B2509FDE553
:100013000A3508FC74522DF58274003CF583E49391
:10002300FD7C001200AF0509E50970020508C394C1
:1000330008E508940040D1050BE50B7002050AD3CF
:0F0043009428E50A940040BBE4F50AF50B80B45D
:1000D100EF4E600F7D0B7CBEDCFEDDFCEF1F70F090
:0300E1001E80ED91
:0100E40022F9
:0500F100C2B6C2B522F9
:02008200AD07C8
:10008400E4FB74807E00A803088006CEA2E713CEAA
:1000940013D8F8FFEDF582EF558224FF92B4D2B65F
:0A00A400C2B60BBB08DCD2B5C2B532
:0100AE00222F
:1000AF00AA07AF05120082AF027480A8070880026A
:1000BF00C313D8FCF4F5807F017E001200D1758048
:0200CF00FF220E
:00000001FF
