:03000000020256A3
:0C025600787FE4F6D8FD758126020003D5
:03000B000201806F
:04018000C0E0C0D04B
:10018400758A66758CFC0526E52670020525C394E0
:0F019400E8E52594034008752500752600B2A004
:0501A300D0D0D0E032D5
:0500030012020680FE60
:06024700C2A58F80D2A7C2
:08024D007F027EEFDEFEDFFC04
:010255002286
:0A026200C2A6120247C2A702024D15
:1001CB00CFCDCFCECCCE12004D7C007D0A12004D90
:0401DB00ED2430FFE0
:0A01DF00D2A6120247C2A702024D89
:10021D00AE07BE0104ED148006BE0209ED243F4475
:06022D0080FF12026222B4
:100233007F381202627F0C1202627F061202627F13
:040243000102026250
:0A026C00AC0312021DAF040201DF13
:0601A8008B228A2389244A
:1001AE0012021DE4FDAB22AA23A9248D82758300C1
:0C01BE0012000EFF60061201DF0D80E948
:0101CA002212
:0C014D007F0AEA24FFFDE434FFFC7E0082
:080159008E1E8F1F8C208D21EA
:100161007F017E00E4FBEBC39521E5206480F874F8
:0E0171008098500AAC1EAD1F12003B0B80E8B8
:01017F00225D
:0401E9008A118B12DA
:1001ED0012021DAA13EAD39400400D12014DAC1159
:0801FD00AD121201CB1A80EDD6
:0102050022D6
:1000A20012021DC3EA64809480400B7F2B1201DF91
:1000B2008A0D8B0E800E7F2D1201DFC3E49BF50E9D
:1000C200E49AF50DAA0CEAD39400400D12014DAC4E
:0900D2000DAD0E1201CB1A80EDF8
:0100DB002202
:0400DC008A168B17DE
:1000E00012021DAA18EAD3940040297F1012014F72
:1000F000AC16AD17CFCDCFCECCCE12004DEF540FF6
:10010000FEC3940AEE5004243080022437FF12010B
:04011000DF1A80D1A1
:0101140022C8
:040115008A1B8B1C9A
:1001190012021DAA1DEAD394004028EA24FFFDE437
:1001290034FFFC7F027E00120159AC1BAD1CCFCD00
:10013900CFCECCCE12004DEF54012430FF1201DF97
:030149001A80D247
:01014C002290
:100206005389F0438901758A66758CFCC28DD28C40
:07021600D2A9D2AFC2B92248
:10000E00BB010CE58229F582E5833AF583E02250A7
:10001E0006E92582F8E622BBFE06E92582F8E222F1
:0D002E00E58229F582E5833AF583E493220B
:10003B00EF8DF0A4A8F0CF8CF0A428CE8DF0A42ED9
:02004B00FE2293
:10004D00BC000BBE0029EF8DF084FFADF022E4CC97
:10005D00F875F008EF2FFFEE33FEEC33FCEE9DEC60
:10006D00984005FCEE9DFE0FD5F0E9E4CEFD22EDA6
:10007D00F8F5F0EE8420D21CFEADF075F008EF2FF0
:10008D00FFED33FD4007985006D5F0F222C398FDE1
:05009D000FD5F0EA227E
:00000001FF
