:030000000200A259
:0C00A200787FE4F6D8FD75812B0200E9A0
:0A039000011300020F00000111002C
:03000B0002012EC1
:10012E00C0E0C0D075D000C000C007758A66758C5F
:10013E00FC0510E5107002050F0511C394F4E50FD0
:10014E009401402B750F00751000E513B4010FAF2D
:10015E00A07801EF08800123D8FDF5A08011E513EA
:10016E00700DAFA07801EF08800103D8FDF5A0D087
:08017E0007D000D0D0D0E03220
:0402C7007F147E0022
:1002CB00C3E52B9FE52A9E50127D0B7CBEDCFEDD29
:0B02DB00FC052BE52B70E9052A80E5EF
:0102E60022F5
:10018600E4FB20B10E7F14FE1202CB30B1FD120249
:10019600C77B0120B00B1202C730B2FD1202C77B2B
:1001A6000220B30B1202C730B3FD1202C77B032035
:0F01B600B40B1202C730B4FD1202C77B04AF03B3
:0101C5002217
:1002E70075A0FE1203401201868F12E512B40102B7
:0E02F7000513E513D3940140EDE4F51380E800
:06038100C2A58F80D2A787
:080387007F027EEFDEFEDFFCC9
:01038F00224B
:0A039B00C2A6120381C2A702038765
:10030500CFCDCFCECCCE12004D7C007D0A12004D54
:04031500ED2430FFA4
:0A031900D2A6120381C2A7020387D7
:10035700AE07BE0104ED148006BE0209ED243F443A
:0603670080FF12039B223F
:10036D007F3812039B7F0C12039B7F0612039B7F2A
:04037D000102039BDB
:0A03A500AC03120357AF0402031962
:0602A4008B278A2889293E
:1002AA00120357E4FDAB27AA28A9298D827583007A
:0C02BA0012000EFF60061203190D80E90F
:0102C6002215
:0C0271007F0AEA24FFFDE434FFFC7E005D
:08027D008E238F248C258D26B1
:100285007F017E00E4FBEBC39526E5256480F874C9
:0E0295008098500AAC23AD2412003B0B80E889
:0102A3002238
:040323008A168B1794
:10032700120357AA18EAD39400400D120271AC16B3
:08033700AD171203051A80ED59
:01033F00229B
:1001C600120357C3EA64809480400B7F2B120319F5
:1001D6008A0D8B0E800E7F2D120319C3E49BF50E3C
:1001E600E49AF50DAA0CEAD39400400D120271AC04
:0901F6000DAD0E1203051A80ED97
:0101FF0022DD
:040200008A1B8B1CAE
:10020400120357AA1DEAD3940040297F10120273E7
:10021400AC1BAD1CCFCDCFCECCCE12004DEF540FC6
:10022400FEC3940AEE5004243080022437FF1203E4
:04023400191A80D142
:0102380022A3
:040239008A208B216B
:10023D00120357AA22EAD394004028EA24FFFDE4D2
:10024D0034FFFC7F027E0012027DAC20AD21CFCDAC
:10025D00CFCECCCE12004DEF54012430FF12031936
:03026D001A80D222
:01027000226B
:100340005389F0438901758A66758CFCC28DD28C05
:07035000D2A9D2AFC2B9220D
:1000AE000202E7E493A3F8E493A34003F68001F27F
:1000BE0008DFF48029E493A3F85407240CC8C33353
:1000CE00C4540F4420C8834004F456800146F6DF22
:1000DE00E4800B0102040810204080900390E47E1F
:1000EE00019360BCA3FF543F30E509541FFEE49317
:1000FE00A360010ECF54C025E060A840B8E493A3DE
:10010E00FAE493A3F8E493A3C8C582C8CAC583CA08
:10011E00F0A3C8C582C8CAC583CADFE9DEE780BEC0
:01039A000062
:10000E00BB010CE58229F582E5833AF583E02250A7
:10001E0006E92582F8E622BBFE06E92582F8E222F1
:0D002E00E58229F582E5833AF583E493220B
:10003B00EF8DF0A4A8F0CF8CF0A428CE8DF0A42ED9
:02004B00FE2293
:10004D00BC000BBE0029EF8DF084FFADF022E4CC97
:10005D00F875F008EF2FFFEE33FEEC33FCEE9DEC60
:10006D00984005FCEE9DFE0FD5F0E9E4CEFD22EDA6
:10007D00F8F5F0EE8420D21CFEADF075F008EF2FF0
:10008D00FFED33FD4007985006D5F0F222C398FDE1
:05009D000FD5F0EA227E
:00000001FF
