:0300000002007586
:0C007500787FE4F6D8FD75810702006674
:02000300AD0747
:10000500E4FB74807E00A803088006CEA2E713CE29
:1000150013D8F8FFEDF582EF558224FF92B4D2B6DE
:0A002500C2B60BBB08DCD2B5C2B5B1
:01002F0022AE
:10003000AA07AF05120003AF027480A80708800268
:10004000C313D8FCF4F5807F017E00120052758046
:02005000FF228D
:0F006600C2B6C2B57DAA7C007F0712003080F5BC
:10005200EF4E600F7D0B7CBEDCFEDDFCEF1F70F00F
:030062001E80ED10
:010065002278
:00000001FF
